:02000000AF2926
:10000800FF00030E8301BE000A08BD008A010B1D14
:100018001328A00A0319A10A0B11063081003D0814
:0C0028008A003E0E8300FF0E7F0E0900D0
:0400340000000800C0
:10003800103083120313FD00FD0B20280000080078
:10004800083083120313FC002330FD00FD0B2A281F
:06005800FC0B2A28080041
:10005E0083120313C81B3528861136288615481BB4
:10006E003A2806113B280615C81A3F288610402844
:10007E008614481A442806104528061433184928B1
:10008E0006164A28061286161A208612C8195128F4
:10009E008611522886154819562806115728061516
:1000AE00C8185B2886105C2886144818602806102D
:1000BE006128061433186528061666280612861659
:1000CE001A208612331C6D2824206E281C2008004E
:1000DE0083120313F801F9011030FC00710DF80DB5
:1000EE00F90D7408F8027508031C750FF902031850
:1000FE0087287408F80775080318750FF907031099
:0A010E00F00DF10DFC0B7528080040
:0E011800831203133C088A003B088200080093
:100126008312031333104708C8002F203314080026
:1001360083120313C301063043020318A928430898
:100146004107840030308000C30A9E2843084107D7
:100156008400800100304006031DB32800303F06AE
:10016600031DB6280729C20180304006F000803002
:100176007002031DC02800303F020318CD2801304D
:10018600C2003F08003CC4004008031C013EC501F4
:10019600C502D1283F08C4004008C5000530C30089
:1001A60000304506031DD9280030440603190029EE
:1001B60043084107C6000A30F4000030F500440841
:1001C600F0004508F1006F207808F0007908F1008A
:1001D6003030F0074608840070088000C3030A30F8
:1001E600F4000030F5004408F0004508F1006F20E7
:1001F6007008C4007108C500D328420803190729EE
:0A020600410884002D30800008003C
:100210001A29803083120313BF002D29C030BF007C
:100220002D299430BF002D29D430BF002D298030D6
:10023000BF002D29831203133F08013A031909292E
:100240003F08023A03190E293F08033A03191129FE
:100250003F08043A0319142917294003F0003F0806
:10026000F0077008BF007008C8002F203310C201CB
:100270004208410784000008031946294208410743
:1002800084000008C7009320C20A382933140800EC
:100290008B168B17831603138112811101108110A5
:0A02A00001150630831281000800EA
:1002AA00831603138612061206108610061186118B
:1002BA008312861206128611061186100610242051
:1002CA00242024208614061486161A208612242036
:1002DA0086161A208612242086161A2086122420B0
:1002EA00061086161A208612242086161A208612CE
:1002FA008610861586161A20861224208611061460
:10030A0086161A208612061086161A2086122420AD
:10031A0086161A208612061486161A208612242099
:10032A00061086161A2086128615061586140614D5
:0C033A0086161A208612242033140800B6
:100346008C208A110A128000840ABB0A0319BC0A8F
:08035600F003031DA3290800B8
:10035E0083120313A001A1014530A2006C30A3004B
:10036E006130A4007030A5006530A6007330A70080
:10037E006530A8006430A9002030AA005430AB00CC
:10038E006930AC006D30AD006530AE003A30AF0074
:10039E00B00155210C30C8002F200130BF000130B4
:1003AE00C0002230C1000821482100302106031D63
:1003BE00E2297D302006031DF729A001A101B10A13
:1003CE000319B20A3108BF003208C0003430C10030
:1003DE009B200230BF000130C0003430C100082124
:0403EE00DC29F829E5
:02400E004A2F37
:00000001FF
